S01200004144435F4472697665722E737265637F
S11300000C942A000C9434000C9434000C943400A6
S11300100C9434000C9434000C9434000C9434008C
S11300200C9434000C9434000C9434000C9434007C
S11300300C9434000C9434000C9434000C9434006C
S11300400C9434000C9434000C9434000C9434005C
S11300500C94340011241FBECFE5D8E0DEBFCDBF21
S11300600E9488020C94E1020C94000024B135B182
S1130070FC01318320830895379A369A089597B105
S11300809067892B87B908953E9A3F983D9881E0FF
S113009090E00E943F0080B7806280BF309A319A1E
S11300A0329A339808954423B9F1413009F06BC072
S11300B0813089F028F08230C9F0833011F108953D
S11300C02AB381E090E002C0880F991F6A95E2F795
S11300D0822B8ABB089527B381E090E002C0880F89
S11300E0991F6A95E2F7822B87BB089524B381E0B8
S11300F090E002C0880F991F6A95E2F7822B84BBB7
S1130100089521B381E090E002C0880F991F6A9599
S1130110E2F7822B81BB0895813091F028F0823080
S1130120D9F0833029F108952AB381E090E002C028
S1130130880F991F6A95E2F7809582238ABB0895F8
S113014027B381E090E002C0880F991F6A95E2F717
S11301508095822387BB089524B381E090E002C098
S1130160880F991F6A95E2F78095822384BB0895CE
S113017021B381E090E002C0880F991F6A95E2F7ED
S11301808095822381BB08954423B9F1413009F05D
S11301906BC0813089F028F08230C9F0833011F1CE
S11301A008952BB381E090E002C0880F991F6A95EF
S11301B0E2F7822B8BBB089528B381E090E002C064
S11301C0880F991F6A95E2F7822B88BB089525B39F
S11301D081E090E002C0880F991F6A95E2F7822BB4
S11301E085BB089522B381E090E002C0880F991F77
S11301F06A95E2F7822B82BB0895813091F028F052
S11302008230D9F0833029F108952BB381E090E056
S113021002C0880F991F6A95E2F7809582238BBBF1
S1130220089528B381E090E002C0880F991F6A9571
S1130230E2F78095822388BB089525B381E090E09E
S113024002C0880F991F6A95E2F78095822385BBC7
S1130250089522B381E090E002C0880F991F6A9547
S1130260E2F78095822382BB0895CF93C82F40E0A4
S113027061E081E00E94C40040E062E081E00E940D
S1130280C40040E063E081E00E94C4008BB39C2F73
S1130290907F8F70892B8BBB41E063E081E00E94EB
S11302A0C4008FE99FE00197F1F700C0000040E02F
S11302B063E081E00E94C4002BB330E1C39FC0011E
S11302C01124922F9F70892B8BBB41E063E081E066
S11302D00E94C4008FE99FE00197F1F700C000007D
S11302E040E063E081E00E94C4008FE19EE4019756
S11302F0F1F700C00000CF91089541E061E081E092
S11303000E94530041E062E081E00E94530041E01A
S113031063E081E00E94530041E064E080E00E94D9
S1130320530041E065E080E00E94530041E066E054
S113033080E00E94530041E067E080E00E945300A7
S11303402FEF81EE94E0215080409040E1F700C00F
S1130350000083E30E94350182E30E94350188E2B4
S11303600E9435018CE00E94350181E00E94350134
S113037086E00E94350182E00E9435010895CF9302
S1130380C82F41E061E081E00E94C40040E062E0E7
S113039081E00E94C40040E063E081E00E94C40068
S11303A08BB39C2F907F8F70892B8BBB41E063E0D4
S11303B081E00E94C4008FE99FE00197F1F700C03B
S11303C0000040E063E081E00E94C4002BB330E110
S11303D0C39FC0011124922F9F70892B8BBB41E0D6
S11303E063E081E00E94C4008FE99FE00197F1F788
S11303F000C0000040E063E081E00E94C4008FE19F
S11304009EE40197F1F700C00000CF9108954F9248
S11304105F926F927F928F929F92AF92BF92CF9290
S1130420DF92EF92FF926B017C0199235CF48DE2E1
S11304300E94BF01F094E094D094C094C11CD11CDC
S1130440E11CF11C1C141D041E041F040CF053C0F9
S113045061E070E080E090E00F2EFAE08F2E912CA6
S1130460A12CB12CF02DDC01CB01880F991FAA1F00
S1130470BB1F2C013D01440C551C661C771C440C0D
S1130480551C661C771C480E591E6A1E7B1EC7012C
S1130490B601A50194010E94A002640D751D861D7C
S11304A0971DC22ED32EE42EF52E1C141D041E04FB
S11304B01F04CCF26230710581059105E4F00F2E22
S11304C0FAE08F2E912CA12CB12CF02DA5019401D2
S11304D00E94A002C22ED32EE42EF52E80E3860FB6
S11304E00E94BF016C2D7D2D8E2D9F2D62307105D4
S11304F0810591055CF7FF90EF90DF90CF90BF905E
S1130500AF909F908F907F906F905F904F900895E1
S1130510CF93DF9300D0CDB7DEB70E947D010E9458
S113052044001A8219820E943C00CE0101960E9466
S1130530360069817A8180E090E00E940702F3CF5F
S1130540052E97FB1EF400940E94B70257FD07D0B6
S11305500E94BF0207FC03D04EF40C94B7025095DE
S11305604095309521953F4F4F4F5F4F089590959B
S11305708095709561957F4F8F4F9F4F0895A1E2AD
S11305801A2EAA1BBB1BFD010DC0AA1FBB1FEE1F09
S1130590FF1FA217B307E407F50720F0A21BB30B54
S11305A0E40BF50B661F771F881F991F1A9469F7D0
S11305B060957095809590959B01AC01BD01CF012C
S10905C00895F894FFCF3A
S9030000FC
