S01200004144435F4472697665722E737265637F
S11300000C942A000C9434000C9434000C943400A6
S11300100C9434000C9434000C9434000C9434008C
S11300200C9434000C9434000C9434000C9434007C
S11300300C9434000C9434000C9434000C9434006C
S11300400C9434000C9434000C9434000C9434005C
S11300500C94340011241FBECFE5D8E0DEBFCDBF21
S11300600E9453020C94C8020C94000024B135B1D0
S1130070FC01318320830895379A369A089597B105
S11300809067892B87B908953E9A3F983D9881E0FF
S113009090E00E943F0080B7806280BF309A319A1E
S11300A0329A33980895442379F1413009F05FC0BE
S11300B0813079F028F08230A9F08330E1F008959E
S11300C02AB381E090E001C0880F6A95EAF7822B99
S11300D02CC027B381E090E001C0880F6A95EAF74D
S11300E0822B2EC024B381E090E001C0880F6A9572
S11300F0EAF7822B30C021B381E090E001C0880F81
S11301006A95EAF7822B32C0813089F028F0823078
S1130110C9F0833011F108952AB381E090E001C061
S1130120880F6A95EAF7809582238ABB089527B3DE
S113013081E090E001C0880F6A95EAF780958223F8
S113014087BB089524B381E090E001C0880F6A95CD
S1130150EAF78095822384BB089521B381E090E07F
S113016001C0880F6A95EAF78095822381BB0895C0
S1130170442379F1413009F05FC0813079F028F0EF
S11301808230A9F08330E1F008952BB381E090E050
S113019001C0880F6A95EAF7822B2CC028B381E04E
S11301A090E001C0880F6A95EAF7822B2EC025B330
S11301B081E090E001C0880F6A95EAF7822B30C095
S11301C022B381E090E001C0880F6A95EAF7822BA0
S11301D032C0813089F028F08230C9F0833011F1C7
S11301E008952BB381E090E001C0880F6A95EAF787
S11301F0809582238BBB089528B381E090E001C0F1
S1130200880F6A95EAF78095822388BB089525B301
S113021081E090E001C0880F6A95EAF78095822317
S113022085BB089522B381E090E001C0880F6A95F0
S1130230EAF78095822382BB0895CF93C82F40E0CC
S113024061E081E00E94B80040E062E081E00E9449
S1130250B80040E063E081E00E94B8008BB39C2FBB
S1130260907F8F70892B8BBB41E063E081E00E941B
S1130270B8008FE99FE00197F1F700C0000040E06B
S113028063E081E00E94B8002BB330E1C39FC0015A
S11302901124922F9F70892B8BBB41E063E081E096
S11302A00E94B8008FE99FE00197F1F700C00000B9
S11302B040E063E081E00E94B8008FE19EE4019792
S11302C0F1F700C00000CF91089541E061E081E0C2
S11302D00E94530041E062E081E00E94530041E04B
S11302E063E081E00E94530041E064E080E00E940A
S11302F0530041E065E080E00E94530041E066E085
S113030080E00E94530041E067E080E00E945300D7
S11303102FEF81EE94E0215080409040E1F700C03F
S1130320000083E30E941D0182E30E941D0188E214
S11303300E941D018CE00E941D0181E00E941D01AC
S113034086E00E941D0182E00C941D01CF93C82F0A
S113035041E061E081E00E94B80040E062E081E0B9
S11303600E94B80040E063E081E00E94B8008BB3D3
S11303709C2F907F8F70892B8BBB41E063E081E0E1
S11303800E94B8008FE99FE00197F1F700C00000D8
S113039040E063E081E00E94B8002BB330E1C39FEA
S11303A0C0011124922F9F70892B8BBB41E063E025
S11303B081E00E94B8008FE99FE00197F1F700C047
S11303C0000040E063E081E00E94B8008FE19EE419
S11303D00197F1F700C00000CF9108954F925F920A
S11303E06F927F928F929F92AF92BF92CF92DF9241
S11303F0EF92FF924B015C0197FF0BC08DE20E94CC
S1130400A601B094A09490948094811C911CA11C8A
S1130410B11C61E070E080E090E03AE0432E512CA2
S1130420612C712C81149104A104B104A9F0AAE0F7
S1130430B0E09B01AC010E948C026B017C01C50100
S1130440B401A30192010E946D026C0D7D1D8E1DED
S11304509F1D49015A01E6CF2AE0C22ED12CE12C7E
S1130460F12C62307105810591056CF0A7019601AC
S11304700E946D0249015A0180E3860F0E94A60181
S1130480B401C501EECFFF90EF90DF90CF90BF9005
S1130490AF909F908F907F906F905F904F90089552
S11304A081E00C941D01CF93DF9300D0CDB7DEB76C
S11304B00E9465010E9444001A8219820E943C0035
S11304C0CE0101960E9436000E94500269817A8111
S11304D080E090E00E94EE01F1CF052E97FB1EF420
S11304E000940E94840257FD07D00E94970207FCE3
S11304F003D04EF40C948402509540953095219588
S11305003F4F4F4F5F4F089590958095709561953B
S11305107F4F8F4F9F4F08950E94B902A59F900D62
S1130520B49F900DA49F800D911D11240895A1E204
S11305301A2EAA1BBB1BFD010DC0AA1FBB1FEE1F59
S1130540FF1FA217B307E407F50720F0A21BB30BA4
S1130550E40BF50B661F771F881F991F1A9469F720
S113056060957095809590959B01AC01BD01CF017C
S11305700895A29FB001B39FC001A39F700D811D78
S11305801124911DB29F700D811D1124911D089598
S1070590F894FFCF09
S9030000FC
